:100000000A128A11C12B00308A000408840A820770
:100010000034533474346134723474342134003411
:1007440064008001840A0406031900340406A32B00
:10075400F20083120313851572080A128A11EF231B
:100764000A128A110800F200831203138511720819
:10077400803E0A128A11EF230A128A110800831399
:100784003430840046300A128A11A2230A128A11D4
:1007940083010A128A11832EF30000300A128A118F
:1007A400B5230A128A1173080A128A11AA230A129B
:1007B4008A11080083120313851101300A128A1169
:1007C400EF230A128A110330F3009730F200F20B80
:1007D400E92BF30BE92BEE2B0800F1000D30F000B0
:1007E400F00BF22B7108F00004300310F00CFF3E04
:1007F400031DF72B70080F39831203138800851427
:10080400851071080F39880085148510080001309F
:1008140070067104031D0F2C102C142C8312031367
:1008240087141B2C8312031387100230C20000307C
:10083400C300013072067304031D212C222C242CC6
:1008440005142A2C05100130C2000030C3002A2CE4
:100854000800F300831203138515412C73088400E8
:100864000A128A1103200A128A110A128A11EF232A
:100874000A128A110130F2007208F307412C73083E
:1008840084000A128A1103200A128A110038031DF7
:100894004C2C4D2C302C4E2C08000430F2007208E5
:1008A400F300FB30F2007208F400592C592C01308B
:1008B400F402031D5E2C5F2C592C602C0130F302D2
:1008C400031D652C662C532C672C0130F00200307C
:1008D400031CF103F10271087004031D722C732CC4
:1008E4004F2C742C080083120313AB01A71F7B2C1D
:1008F4007C2C852CA609A709A60A0319A70AAB0113
:100904000314AB0D852C2608F0002708F100F20132
:100914008E30A9002908F3002B08AA002A08F40045
:100924000A128A1108260A128A1170088312031304
:10093400A6007108A7007208A800A02C0800F00007
:10094400F008031DA62CA72CAB2C83160313051447
:10095400CC2C7008013A031DB02CB12CB52C831695
:1009640003138514CC2C7008023A031DBA2CBB2C3B
:10097400BF2C831603130515CC2C7008033A031DF2
:10098400C42CC52CCC2C831603138515CC2CCC2C51
:10099400CC2CCC2C8430831603139F000800013028
:1009A4008312031342064304031DD92CDA2CE82CCA
:1009B4000130F0000030F1000030F2000030F300AC
:1009C4000A128A1109240A128A11002D0230831294
:1009D400031342064304031DF02CF12C002D0030B8
:1009E400F0000030F1000130F2000030F3000A1290
:1009F4008A1109240A128A11002D002D0800F4001E
:100A0400831203131F147408F20002300310F20D52
:100A1400FF3E031D082D0310720D013E9F00831637
:100A240003130C13831203130C13831603139E0175
:100A3400831203139E011E2D0C1F212D222D1E2D0A
:100A4400232D831603131E08F200F3017208F50028
:100A54007308F600831203131E08F200F3017208F0
:100A6400F300F2017208F5070318F60A7308F60793
:100A74007608F101F1077508F001F007412D08002F
:100A84000630831603139F000330F4007408F60045
:100A94008501880183120313851185100511143013
:100AA400F5007930F400F40B552DF50B552D5A2D26
:100AB4007608831203138800851485100730F50027
:100AC4007D30F400F40B642DF50B642D83120313B5
:100AD400851485104230F400F40B6E2D64008312EB
:100AE4000313851485104230F400F40B772D640051
:100AF40002308312031388008514851028300A12EB
:100B04008A11EF230A128A110F300A128A11EF2375
:100B14000A128A110A128A11DC230A128A11063077
:100B24000A128A11EF230A128A110800FA1F9B2D58
:100B34009C2DC42D003083120313A0000030A100AB
:100B44008030A2007809A3007909A4007A09A500DD
:100B5400A30A0319A40A0319A50A2308A007240851
:100B64000318240FB62DB72DA10725080318250F48
:100B7400BC2DBD2DA2072008F8002108F900220889
:100B8400FA00C42DFD1FC72DC82DF02D003083128F
:100B94000313A0000030A1008030A2007B09A30051
:100BA4007C09A4007D09A500A30A0319A40A03195A
:100BB400A50A2308A00724080318240FE22DE32D17
:100BC400A10725080318250FE82DE92DA207200801
:100BD400FB002108FC002208FD00F02D8030FA06FD
:100BE4008030FD067D087A02031DFE2D7C08790203
:100BF400031DFE2D7B0878020318012E022E042EFD
:100C04000310072E0314072E072E08007308031D74
:100C14000C2E142E720871047004031D122E132E50
:100C24002A2E142E0030F0000030F1000030F200C3
:100C3400822E822E2A2E0130F5007508F30701302A
:100C44000310F20CF10CF00CFF3E031D222E2A2E91
:100C5400FE307205031D2F2E302E1D2E482E482ED9
:100C64000130F5007508F3070130F0070030031870
:100C74000130F107003003180130F207013003108E
:100C8400F20CF10CF00CFF3E031D412EFF307205F7
:100C9400031D4D2E4E2E322E5B2E5B2E0130F302A1
:100CA40001300310F00DF10DF20DFF3E031D532E24
:100CB4005B2EF11F5E2E5F2E502E7318622E632E54
:100CC400692EFF30F0057F30F105FF30F205031087
:100CD400F30C7308F500F601F70110300310F50D5D
:100CE400F60DF70DFF3E031D702E7508F00476080F
:100CF400F1047708F2047408031D812E822EF21782
:100D040008008316031386018701880189010A12EA
:100D14008A1142250A128A110A128A1139270A12E3
:100D24008A1100300A128A11A1240A128A11013090
:100D34000A128A11A1240A128A11A02E00300A1262
:100D44008A1101250A128A11710883120313B3014F
:100D5400B3077008B201B2070030F800C030F900E0
:100D64003F30FA003308A701A7073208A601A607F7
:100D74000A128A1175240A128A118312031326088F
:100D8400FB002708FC002808FD000A128A11982598
:100D94000A128A110030031C013083120313AC00C1
:100DA400AD012C08AE002D08AF0001300A128A11E3
:100DB40001250A128A11710883120313B301B307C0
:100DC4007008B201B2070030F800C030F9003F30BB
:100DD400FA003308A701A7073208A601A6070A12DA
:100DE4008A1175240A128A11831203132608FB0040
:100DF4002708FC002808FD000A128A1198250A1207
:100E04008A110030031C013083120313AC00AD01BE
:100E14002C08B0002D08B1002F082E04031D132F39
:100E2400142F202F31083004031D192F1A2F202FBF
:100E34000A128A11D1240A128A11A02E83120313D2
:100E44002F08F101F1072E08F001F0073108F30132
:100E5400F3073008F201F2070A128A1109240A1270
:100E64008A11A02EA02EA02E0A128A110028383032
:100E74000A128A11CE230A128A11E830F0000330D4
:100E8400F1000A128A114F240A128A1137300A1209
:100E94008A11CE230A128A11E830F0000330F100DF
:100EA4000A128A114F240A128A1136300A128A1140
:100EB400CE230A128A11E830F0000330F1000A123E
:100EC4008A114F240A128A1135300A128A11CE234C
:100ED4000A128A11E830F0000330F1000A128A1174
:100EE4004F240A128A1134300A128A11CE230A12AC
:100EF4008A11E830F0000330F1000A128A114F24FD
:100F04000A128A1133300A128A11CE230A128A1164
:100F1400831203138715C830F0000030F1000A1261
:100F24008A114F240A128A11831203138711BC30C9
:100F3400F0000230F1000A128A114F240A128A11B9
:100F44008312031387156430F0000030F1000A1295
:100F54008A114F240A128A1132300A128A11CE23BE
:100F64000A128A116430F0000030F1000A128A116A
:100F74004F240A128A11831203138711BC30F00024
:100F84000230F1000A128A114F240A128A118312C4
:100F940003138715C830F0000030F1000A128A11DB
:100FA4004F240A128A1131300A128A11CE230A12EE
:100FB4008A11831203138711BC30F0000230F10050
:100FC4000A128A114F240A128A1183120313071674
:100FD4002C30F0000130F1000A128A114F240A1259
:100FE4008A1100300A128A11B5230A128A110130BB
:0C0FF4000A128A112B240A128A1108002C
:02400E00F5FFBC
:00000001FF
