:0A0000008031022888018431CE2CE3
:10098400303023008E0021009E01080064008001A5
:100994000131890BC92C0034FC01FD012030840095
:1009A4000030850012308431C82484312000853120
:1009B400A12D013070067104031DE12CE22CE52CFD
:1009C40020000E17EB2C20000E130130FC00003029
:1009D400FD00013072067304031DF12CF22CF42C7B
:1009E4008E17FA2C8E130230FC000030FD00FA2C16
:1009F4000800F201F3017308803AFF0080307F029F
:100A0400031D062D05307202031C092D0A2D0C2D21
:100A14001F2D1F2D00000130F2070030F33D730835
:100A2400803AFF0080307F02031D1A2D05307202C8
:100A3400031C1D2D1E2D0C2D1F2D0130F002003026
:100A4400F13B71087004031D282D292DFB2C2A2D40
:100A5400080071087004031D302D312D452D4130DF
:100A640021009D009D14362D9D18392D3A2D362DCB
:100A74001D101C08F200F3017208F0007308F10065
:100A8400602D602D602D013070067104031D4B2D07
:100A94004C2D602D453021009D009D14512D9D1835
:100AA400542D552D512D1D101C08F200F301720810
:100AB400F0007308F100602D602D602D08000130F6
:100AC4002000AE000030AF0002307C067D04031D20
:100AD4006C2D6D2D792D0130F0000030F1000030C7
:100AE400F2000030F3008431DB248531A02D013085
:100AF4007C067D04031D7F2D802D8C2D0030F0009D
:100B04000030F1000130F2000030F3008431DB24C6
:100B14008531A02D7D087C04031D912D922DA02DDF
:100B24000130F0000030F1000130F2000030F30039
:100B34008431DB248531A02DA02DA02D08002100B7
:100B44008C018D0130308E0020008C018D018E01CE
:100B54008631162685318431C2248531B12D013088
:100B6400F0000030F10085312B2585317108FB013F
:100B7400FB077008FA01FA077B08803AFF0080300F
:100B84007F02031DC72D47307A020030031801305D
:100B9400F400F5017408F6007508F7000030F00061
:100BA4000030F10085312B2585317108FB01FB07ED
:100BB4007008FA01FA077B08803AFF0080307F0250
:100BC400031DE62D47307A02003003180130F4008B
:100BD400F5017408F8007508F90077087604031D18
:100BE400F42DF52DFF2D79087804031DFA2DFB2D26
:100BF400FF2D853161258531B12D2000AE01AF0176
:100C04007708F101F1077608F001F0077908F3019C
:100C1400F3077808F201F2078431DB248531B12D22
:100C2400B12DB12D803102282000B201B301330867
:100C3400803AFF0080307F02031D222E0C303202E6
:100C4400031C252E262E282E4D2E4D2E20008E15CB
:100C54000830F0000030F1008431FB24863120009C
:100C64008E110830F0000030F1008431FB2486310D
:100C740001302000B2070030B33D3308803AFF0052
:100C840080307F02031D482E0C303202031C4B2E91
:100C94004C2E282E4D2E2830F0000330F1008431E4
:100CA400FB2486312000B401B5013508803AFF00E9
:100CB40080307F02031D602E0C303402031C632E2F
:100CC400642E662E8B2E8B2E20008E150830F0009D
:100CD4000030F1008431FB24863120008E1108306D
:100CE400F0000030F1008431FB2486310130200013
:100CF400B4070030B53D3508803AFF0080307F02EC
:100D0400031D862E0C303402031C892E8A2E662E77
:100D14008B2E2830F0000330F1008431FB2486311F
:100D24002000B601B7013708803AFF0080307F0207
:100D3400031D9E2E0C303602031CA12EA22EA42EBF
:100D4400C92EC92E20008E150830F0000030F100A5
:100D54008431FB24863120008E110830F0000030ED
:100D6400F1008431FB24863101302000B6070030C5
:100D7400B73D3708803AFF0080307F02031DC42E40
:100D84000C303602031CC72EC82EA42EC92E2830C0
:100D9400F0000330F1008431FB2486312000B801D7
:100DA400B9013908803AFF0080307F02031DDC2E30
:100DB4000C303802031CDF2EE02EE22E072F072F03
:100DC40020008E150830F0000030F1008431FB243F
:100DD400863120008E110830F0000030F10084319B
:100DE400FB24863101302000B8070030B93D3908B2
:100DF400803AFF0080307F02031D022F0C3038023E
:100E0400031C052F062FE22E072F2830F000033095
:100E1400F1008431FB2486312000BA01BB013B0878
:100E2400803AFF0080307F02031D1A2F50303A02AF
:100E3400031C1D2F1E2F202F452F452F20008E15FC
:100E44000430F0000030F1008431FB2486312000AE
:100E54008E110430F0000030F1008431FB2486311F
:100E640001302000BA070030BB3D3B08803AFF0048
:100E740080307F02031D402F50303A02031C432F61
:100E8400442F202F452FAA30F0000130F100843187
:100E9400FB2486312000BC01BD013D08803AFF00DF
:100EA40080307F02031D582F50303C02031C5B2FFF
:100EB4005C2F5E2F832F832F20008E150430F000CB
:100EC4000030F1008431FB24863120008E1104307F
:100ED400F0000030F1008431FB2486310130200021
:100EE400BC070030BD3D3D08803AFF0080307F02E2
:100EF400031D7E2F50303C02031C812F822F5E2F56
:100F0400832FAB30F0000130F1008431FB248631B3
:100F14002000BE01BF013F08803AFF0080307F02FD
:100F2400031D962F50303E02031C992F9A2F9C2F9D
:100F3400C12FC12F20008E150430F0000030F100C5
:100F44008431FB24863120008E110430F0000030FF
:100F5400F1008431FB24863101302000BE070030CB
:100F6400BF3D3F08803AFF0080307F02031DBC2F45
:100F740050303E02031CBF2FC02F9C2FC12FAB301B
:100F8400F0000130F1008431FB2486312000C001DF
:100F9400C1014108803AFF0081307F02031DD42F34
:100FA40090304002031CD72FD82FDA2FFF2FFF2FAA
:100FB40020008E150130F0000030F1008431FB2454
:100FC400863120008E110130F0000030F1008431B0
:100FD400FB24863101302000C0070030C13D4108A8
:100FE400803AFF0081307F02031DFA2F90304002C7
:0C0FF400031CFD2FFE2FDA2FFF2F08003A
:020000040001F9
:02000E00E4F715
:00000001FF
