:060000000A128A11AD2E68
:100D4000FF30831603139100080064008001840AB9
:100D50000406031900340406A62E831320308400F1
:100D600032300A128A11A5260A128A1183010A1248
:100D70008A116A2F013070067104031DC02EC12E26
:100D8000C52E831203130717CC2E831203130713E8
:100D90000130AE000030AF00013072067304031D55
:100DA000D22ED32ED52E8717DB2E87130230AE001E
:100DB0000030AF00DB2E08000430F2007208F300B0
:100DC0002330F2007208F400E62EE62E0130F40221
:100DD000031DEB2EEC2EE62EED2E0130F302031D4B
:100DE000F22EF32EE02EF42E0130F0020030031C20
:100DF000F103F10271087004031DFF2E002FDC2E99
:100E0000012F08000130831203132E062F04031D47
:100E10000A2F0B2F192F0130F0000030F1000030A5
:100E2000F2000030F3000A128A11BA260A128A115F
:100E3000312F0230831203132E062F04031D212F9E
:100E4000222F312F0030F0000030F1000130F2008D
:100E50000030F3000A128A11BA260A128A11312FC1
:100E6000312F080071087004031D372F382F4D2FC4
:100E70001530831203139F009F143E2F9F18412F9C
:100E8000422F3E2F1F101E08F200F3017208F000DF
:100E90007308F100692F692F692F01307006710402
:100EA000031D532F542F692F1930831203139F00F2
:100EB0009F145A2F9F185D2F5E2F5A2F1F101E0848
:100EC000F200F3017208F0007308F100692F692F36
:100ED000692F080083160313850186018701FF30FF
:100EE000890083120313850186010717E830F0009B
:100EF0000330F1000A128A11DC260A128A118312C9
:100F0000031307138717E830F0000330F1000A12CB
:100F10008A11DC260A128A118312031387130A121C
:100F20008A11A0260A128A11952F0130F000003094
:100F3000F1000A128A1132270A128A117108FC0183
:100F4000FC077008FB01FB077C08803AFF0080303B
:100F50007F02031DAD2FAB307B0200300318013040
:100F6000F500F6017508F7007608F8000030F0008B
:100F70000030F1000A128A1132270A128A11710810
:100F8000FC01FC077008FB01FB077C08803AFF00AE
:100F900080307F02031DCE2FAB307B020030031860
:100FA0000130F500F6017508F9007608FA007808B6
:100FB0007704031DDC2FDD2FE92F7A087904031D48
:100FC000E22FE32FE92F0A128A1102270A128A114F
:100FD000952F7808F101F1077708F001F0077A08FA
:100FE000F301F3077908F201F2070A128A11BA260F
:100FF0000A128A11952F952F952F0A128A1100280F
:02400E00F5FFBC
:00000001FF
