:100000000A128A11802B00308A000408840A8207B1
:100010000034533474346134723474342134003411
:0A0020007434653473347434003412
:1006C20064008001840A0406031900340406622BC4
:1006D200F20083120313851572080A128A11AE23DF
:1006E2000A128A110800F20083120313851172089C
:1006F200803E0A128A11AE230A128A11080083135D
:100702003430840046300A128A1161230A128A1197
:1007120083010A128A11FF2EF30000300A128A1195
:1007220074230A128A1173080A128A1169230A129F
:100732008A11080083120313851101300A128A11EB
:10074200AE230A128A110330F3009730F200F20B43
:10075200A82BF30BA82BAD2B0800F1000D30F000F5
:10076200F00BB12B7108F00004300310F00CFF3EC7
:10077200031DB62B70080F398312031388008514EA
:10078200851071080F398800851485100800013022
:1007920070067104031DCE2BCF2BD32B83120313B0
:1007A2000717DA2B8312031307130130C20000303C
:1007B200C300013072067304031DE02BE12BE32B0F
:1007C2008717E92B87130230C2000030C300E92BE0
:1007D2000800F300831203138515002C73088400AC
:1007E2000A128A1103200A128A110A128A11AE23EE
:1007F2000A128A110130F2007208F307002C730802
:1008020084000A128A1103200A128A110038031D79
:100812000B2C0C2CEF2B0D2C08000430F20072086C
:10082200F3002330F2007208F400182C182C013067
:10083200F402031D1D2C1E2C182C1F2C0130F30258
:10084200031D242C252C122C262C0130F002003002
:10085200031CF103F10271087004031D312C322CC8
:100862000E2C332C080083120313AB01A71F3A2C62
:100872003B2C442CA609A709A60A0319A70AAB0117
:100882000314AB0D442C2608F0002708F100F201F6
:100892008E30A9002908F3002B08AA002A08F400C8
:1008A2000A128A11B6250A128A11700883120313DA
:1008B200A6007108A7007208A8005F2C0800F600C5
:1008C200831203139F017608F20001300310F20D28
:1008D200FF3E031D672C0310720D9F001F149F140F
:1008E200722C9F18752C762C722C1F1083160313F2
:1008F2001E08F200F3010830831203131E020030B7
:10090200031C0130F400F50172087404F00073084E
:100912007504F1008C2C0800013083120313420687
:100922004304031D952C962CA42C0130F0000030BA
:10093200F1000030F2000030F3000A128A11C823DD
:100942000A128A11BC2C023083120313420643049A
:10095200031DAC2CAD2CBC2C0030F0000030F1009B
:100962000130F2000030F3000A128A11C8230A1281
:100972008A11BC2CBC2C080071087004031DC22C07
:10098200C32CC72C831603130914EB2C01307006F9
:100992007104031DCD2CCE2CD22C83160313891483
:1009A200EB2C023070067104031DD82CD92CDD2CDF
:1009B200831603130915EB2C033070067104031D13
:1009C200E32CE42CEB2C831603138915EB2CEB2C74
:1009D200EB2CEB2C8430831603139F0008000630A7
:1009E200831603139F000330F4007408F600850198
:1009F2008801831203138511851005111430F50047
:100A02007930F400F40B032DF50B032D082D760835
:100A1200831203138800851485100730F5007D309A
:100A2200F400F40B122DF50B122D8312031385140F
:100A320085104230F400F40B1C2D64008312031362
:100A4200851485104230F400F40B252D6400023029
:100A52008312031388008514851028300A128A1124
:100A6200AE230A128A110F300A128A11AE230A1219
:100A72008A110A128A119B230A128A1106300A125B
:100A82008A11AE230A128A110800FA1F492D4A2D33
:100A9200722D003083120313A0000030A1008030B9
:100AA200A2007809A3007909A4007A09A500A30A83
:100AB2000319A40A0319A50A2308A0072408031886
:100AC200240F642D652DA10725080318250F6A2D13
:100AD2006B2DA2072008F8002108F9002208FA006D
:100AE200722DFD1F752D762D9E2D0030831203135E
:100AF200A0000030A1008030A2007B09A3007C0985
:100B0200A4007D09A500A30A0319A40A0319A50AD2
:100B12002308A00724080318240F902D912DA10764
:100B220025080318250F962D972DA2072008FB00F4
:100B32002108FC002208FD009E2D8030FA0680303C
:100B4200FD067D087A02031DAC2D7C087902031D87
:100B5200AC2D7B0878020318AF2DB02DB22D0310F7
:100B6200B52D0314B52DB52D08007308031DBA2D3C
:100B7200C22D720871047004031DC02DC12DD82D21
:100B8200C22D0030F0000030F1000030F200302EB3
:100B9200302ED82D0130F5007508F307013003100F
:100BA200F20CF10CF00CFF3E031DD02DD82DFE30BF
:100BB2007205031DDD2DDE2DCB2DF62DF62D013018
:100BC200F5007508F3070130F00700300318013013
:100BD200F107003003180130F20701300310F20C64
:100BE200F10CF00CFF3E031DEF2DFF307205031DCB
:100BF200FB2DFC2DE02D092E092E0130F3020130D0
:100C02000310F00DF10DF20DFF3E031D012E092E12
:100C1200F11F0C2E0D2EFE2D7318102E112E172ED5
:100C2200FF30F0057F30F105FF30F2050310F30CC1
:100C32007308F500F601F70110300310F50DF60DFB
:100C4200F70DFF3E031D1E2E7508F0047608F10411
:100C52007708F2047408031D2F2E302EF2170800B5
:100C6200831203138711071238300A128A118D2357
:100C72000A128A11E830F0000330F1000A128A11D8
:100C82000E240A128A1137300A128A118D230A128F
:100C92008A11E830F0000330F1000A128A110E24A2
:100CA2000A128A1136300A128A118D230A128A1107
:100CB200E830F0000330F1000A128A110E240A1201
:100CC2008A1135300A128A118D230A128A11E830EC
:100CD200F0000330F1000A128A110E240A128A115E
:100CE20034300A128A118D230A128A11E830F00078
:100CF2000330F1000A128A110E240A128A113330CB
:100D02000A128A118D230A128A118312031387157C
:100D1200C830F0000030F1000A128A110E240A12C3
:100D22008A11831203138711BC30F0000230F100E4
:100D32000A128A110E240A128A11831203138715CA
:100D42006430F0000030F1000A128A110E240A12F7
:100D52008A1132300A128A118D230A128A116430E2
:100D6200F0000030F1000A128A110E240A128A11D0
:100D7200831203138711BC30F0000230F1000A1213
:100D82008A110E240A128A11831203138715C8309E
:100D9200F0000030F1000A128A110E240A128A11A0
:100DA20031300A128A118D230A128A118312031317
:100DB2008711BC30F0000230F1000A128A110E24B1
:100DC2000A128A118312031307162C30F000013025
:100DD200F1000A128A110E240A128A1183120313D5
:100DE200071200300A128A1174230A128A11013082
:100DF2000A128A11EA230A128A11080083160313BF
:100E0200860187018901E830F0000330F1000A12FF
:100E12008A110E240A128A110A128A11F0240A1265
:100E22008A1108300A128A11EA230A128A118830BA
:100E3200F0001330F1000A128A110E240A128A11EC
:100E4200222F0A128A1131260A128A11222F222FE8
:100E52000030F0000030F1000A128A11BD240A129B
:100E62008A110130F0000030F1000A128A11BD240B
:100E72000A128A1100300A128A1160240A128A1197
:100E8200710883120313B301B3077008B201B207EA
:100E92006630F8006630F9003F30FA003308A701E7
:100EA200A7073208A601A6070A128A1134240A12D9
:100EB2008A11831203132608FB002708FC00280866
:100EC200FD000A128A1146250A128A110030031CFB
:100ED200013083120313AC00AD012C08AE002D08C3
:100EE200AF0001300A128A1160240A128A117108B5
:100EF20083120313B301B3077008B201B20766305D
:100F0200F8006630F9003F30FA003308A701A7075E
:100F12003208A601A6070A128A1134240A128A117B
:100F2200831203132608FB002708FC002808FD0093
:100F32000A128A1146250A128A110030031C013056
:100F420083120313AC00AD012C08B0002D08B100D0
:100F52002F082E04031DAE2FAF2FD12F31083004DE
:100F6200031DB42FB52FD12F8715B830F0000B30E9
:100F7200F1000A128A110E240A128A118312031333
:100F82008711E830F0000330F1000A128A110E24B2
:100F92000A128A110A128A118D240A128A113B2F0F
:100FA2008715E830F0000330F1000A128A110E248E
:100FB2000A128A11831203138711E830F0000330FA
:100FC200F1000A128A110E240A128A1183120313E3
:100FD2002F08F101F1072E08F001F0073108F301A3
:100FE200F3073008F201F2070A128A11C8230A1223
:0E0FF2008A113B2F3B2F3B2F0A128A11002839
:02400E00F5FFBC
:00000001FF
