:060000000A128A11E82E2D
:100DB600FF30831603139100080064008001840A43
:100DC6000406031900340406E12EFC01FD01831319
:100DD6002030840030300A128A11E0260A128A1165
:100DE60083010A128A117D2F013070067104031DDA
:100DF600FD2EFE2E022F831203130717092F8312CF
:100E0600031307130130FC000030FD0001307206A9
:100E16007304031D0F2F102F122F8717182F8713F8
:100E26000230FC000030FD00182F080001307C065F
:100E36007D04031D1F2F202F2E2F0130F0000030C0
:100E4600F1000030F2000030F3000A128A11F72692
:100E56000A128A11442F02307C067D04031D342FAA
:100E6600352F442F0030F0000030F1000130F20041
:100E76000030F3000A128A11F7260A128A11442F4B
:100E8600442F080071087004031D4A2F4B2F602F52
:100E96001530831203139F009F14512F9F18542F50
:100EA600552F512F1F101E08F200F3017208F00093
:100EB6007308F1007C2F7C2F7C2F013070067104A3
:100EC600031D662F672F7C2F1930831203139F0093
:100ED6009F146D2F9F18702F712F6D2F1F101E08D6
:100EE600F200F3017208F0007308F1007C2F7C2FEA
:100EF6007C2F080083160313850186018701C03005
:100F06008900831203138501860187010A128A115B
:100F1600DB260A128A118F2F0030F0000030F10014
:100F26000A128A1145270A128A117108FB01FB076A
:100F36007008FA01FA077B08803AFF0080307F02CA
:100F4600031DA72F97307A02003003180130F400F2
:100F5600F5017408F6007508F7000130F00000305E
:100F6600F1000A128A1145270A128A117108FB013B
:100F7600FB077008FA01FA077B08803AFF00803009
:100F86007F02031DC82F97307A0200300318013004
:100F9600F400F5017408F8007508F900770876047E
:100FA600031DD62FD72FE62F79087804031DDC2FD3
:100FB600DD2FE62F8312031387150A128A111927CC
:100FC6000A128A118F2F8312031387117708F101F2
:100FD600F1077608F001F0077908F301F3077808BE
:100FE600F201F2070A128A11F7260A128A118F2FC6
:0A0FF6008F2F8F2F0A128A11002896
:02400E00F5FFBC
:00000001FF
