:060000000A128A11D42D42
:100B88000800FF30831603138900FF309100080026
:100B980064008001840A0406031900340406CD2D7C
:100BA80083132030840034300A128A11CC250A12AB
:100BB8008A1183010A128A11BA2E0430F2007208CF
:100BC800F3002330F2007208F400EB2DEB2D013016
:100BD800F402031DF02DF12DEB2DF22D0130F3025F
:100BE800031DF72DF82DE52DF92D0130F002003009
:100BF800031CF103F10271087004031D042E052E75
:100C0800E12D062E0800013070067104031D0D2E1B
:100C18000E2E122E831203130717202E831203138E
:100C280007132F082E04031D1A2E1B2E202E013009
:100C3800B0000030B100202E013072067304031D8D
:100C4800262E272E292E8717362E87132F082E0497
:100C5800031D2F2E302E362E0230B0000030B1008A
:100C6800362E362E080071087004031D3C2E3D2ECA
:100C7800522E1530831203139F009F14432E9F1882
:100C8800462E472E432E1F101E08F200F30172084D
:100C9800F0007308F1006E2E6E2E6E2E0130700675
:100CA8007104031D582E592E6E2E1930831203130A
:100CB8009F009F145F2E9F18622E632E5F2E1F10B9
:100CC8001E08F200F3017208F0007308F1006E2E9E
:100CD8006E2E6E2E0800013083120313AE00003012
:100CE800AF00023030063104031D7B2E7C2E8A2E85
:100CF8000130F0000030F1000030F2000030F30065
:100D08000A128A1107260A128A11B92E0130831293
:100D1800031330063104031D922E932EA12E0030AA
:100D2800F0000030F1000130F2000030F3000A1248
:100D38008A1107260A128A11B92E83120313310861
:100D48003004031DA82EA92EB92E0130F000003062
:100D5800F1000130F2000030F3000A128A11072670
:100D68000A128A11B92EB92EB92E08008316031358
:100D78008501860187018312031385018601870196
:100D88000A128A113E270A128A110A128A11C525E7
:100D98000A128A11CF2E0130F0000030F1000A1239
:100DA8008A1137260A128A117108FC01FC0770089B
:100DB800FB01FB077C08803AFF0080307F02031D9F
:100DC800E72EAB307B02003003180130F500F60146
:100DD8007508F7007608F8000030F0000030F100E0
:100DE8000A128A1137260A128A117108FC01FC07B7
:100DF8007008FB01FB077C08803AFF0080307F0207
:100E0800031D082FAB307B02003003180130F500BA
:100E1800F6017508F9007608FA0078087704031DCA
:100E2800162F172F232F7A087904031D1C2F1D2F27
:100E3800232F0A128A116F260A128A11CF2E8312C3
:100E48000313AE01AF017808F101F1077708F0014B
:100E5800F0077A08F301F3077908F201F2070A129A
:100E68008A1107260A128A11CF2ECF2ECF2E0A12E8
:100E78008A110028831203138711071238300A12C7
:100E88008A11C4250A128A11E830F0000330F100F3
:100E98000A128A11E1250A128A1137300A128A11B8
:100EA800C4250A128A11E830F0000330F1000A1252
:100EB8008A11E1250A128A1136300A128A11C425CC
:100EC8000A128A11E830F0000330F1000A128A1180
:100ED800E1250A128A1135300A128A11C4250A122C
:100EE8008A11E830F0000330F1000A128A11E12576
:100EF8000A128A1134300A128A11C4250A128A1178
:100F0800E830F0000330F1000A128A11E1250A12D4
:100F18008A1133300A128A11C4250A128A118312DF
:100F280003138715C830F0000030F1000A128A1147
:100F3800E1250A128A11831203138711BC30F000CD
:100F48000230F1000A128A11E1250A128A1183126D
:100F5800031387156430F0000030F1000A128A117B
:100F6800E1250A128A1132300A128A11C4250A129E
:100F78008A116430F0000030F1000A128A11E1256C
:100F88000A128A11831203138711BC30F000023051
:100F9800F1000A128A11E1250A128A118312031339
:100FA8008715C830F0000030F1000A128A11E125D7
:100FB8000A128A1131300A128A11C4250A128A11BA
:100FC800831203138711BC30F0000230F1000A12BB
:100FD8008A11E1250A128A118312031307162C308D
:100FE800F0000130F1000A128A11E1250A128A1173
:080FF800831203130712080025
:02400E00F5FFBC
:00000001FF
