:060000000A128A11C02D56
:100B6200FF30831603138900FF30910008006400F0
:100B72008001840A0406031900340406B92DFC011D
:100B8200FD0183132030840032300A128A11B82505
:100B92000A128A1183010A128A115F2F0430F200AD
:100BA2007208F3002330F2007208F400D92DD92D17
:100BB2000130F402031DDE2DDF2DD92DE02D013091
:100BC200F302031DE52DE62DD32DE72D0130F002B2
:100BD2000030031CF103F10271087004031DF22DB1
:100BE200F32DCF2DF42D0800F50083120313851089
:100BF2000510750886000530F0000030F1000A1279
:100C02008A11CF250A128A118312031305150530A2
:100C1200F0000030F1000A128A11CF250A128A115F
:100C22008312031305110530F0000030F1000A129F
:100C32008A11CF250A128A110800F50083120313C4
:100C42008510750886000514F6010314F60D2A2E88
:100C52002A2E0130F602031D2F2E302E2A2E831249
:100C6200031305150530F0000030F1000A128A1155
:100C7200CF250A128A1183120313051105100530BC
:100C8200F0000030F1000A128A11CF250A128A11EF
:100C92000800013070067104031D502E512E552E8E
:100CA200831203130717632E8312031307132F08EC
:100CB2002E04031D5D2E5E2E632E0130FC000030DB
:100CC200FD00632E013072067304031D692E6A2E25
:100CD2006C2E8717792E87132F082E04031D722E70
:100CE200732E792E0230FC000030FD00792E792E11
:100CF200080071087004031D7F2E802E952E15307A
:100D0200831203139F009F14862E9F18892E8A2E0A
:100D1200862E1F101E08F200F3017208F0007308FD
:100D2200F100B12EB12EB12E013070067104031DF7
:100D32009B2E9C2EB12E1930831203139F009F14F9
:100D4200A22E9F18A52EA62EA22E1F101E08F2005C
:100D5200F3017208F0007308F100B12EB12EB12E2A
:100D62000800013083120313AE000030AF000230DE
:100D72007C067D04031DBE2EBF2ECD2E0130F00059
:100D82000030F1000030F2000030F3000A128A1144
:100D92004A260A128A11F82E01307C067D04031DB0
:100DA200D32ED42EE22E0030F0000030F1000130BC
:100DB200F2000030F3000A128A114A260A128A113E
:100DC200F82E7D087C04031DE72EE82EF82E013054
:100DD200F0000030F1000130F2000030F3000A129E
:100DE2008A114A260A128A11F82EF82EF82E0800C5
:100DF2002830F0000030F1000A128A11CF250A12C1
:100E02008A118312031305100511851008300A1286
:100E12008A11F5250A128A110F30F6007608F700BA
:100E2200132F132F0130F702031D182F192F132F21
:100E32001A2F38300A128A11F5250A128A110F3038
:100E4200F6007608F800262F262F0130F802031D3F
:100E52002B2F2C2F262F2D2F0F300A128A11F5251A
:100E62000A128A110F30F6007608F900392F392F4D
:100E72000130F902031D3E2F3F2F392F402F013041
:100E82000A128A11F5250A128A110530F000003083
:100E9200F1000A128A11CF250A128A1107300A12AA
:100EA2008A11F5250A128A110530F0000030F1008E
:100EB2000A128A11CF250A128A1108008316031317
:100EC200850186018701831203138501860187014B
:100ED2000730831603139C008312031787018316BE
:100EE200031391010A128A11F9260A128A1181301A
:100EF2000A128A111E260A128A110A128A11B125B1
:100F02000A128A110A128A11B1250A128A11892F2C
:100F12000130F0000030F1000A128A117A260A121A
:100F22008A11710883120313B701B7077008B6015B
:100F3200B6073708803AFF0080307F02031DA32FD7
:100F4200AB303602003003180130FA00FB017A0898
:100F520083120313B2007B08B3000030F0000030AC
:100F6200F1000A128A117A260A128A117108831272
:100F72000313B701B7077008B601B6073708803AFE
:100F8200FF0080307F02031DC82FAB3036020030D5
:100F920003180130FA00FB017A0883120313B4002C
:100FA2007B08B50033083204031DD82FD92FE52F53
:100FB20035083404031DDE2FDF2FE52F0A128A11B4
:100FC200B2260A128A11892F83120313AE01AF01CE
:100FD2003308F101F1073208F001F0073508F30197
:100FE200F3073408F201F2070A128A114A260A129A
:0E0FF2008A11892F892F892F0A128A1100284F
:02400E00F5FFBC
:00000001FF
