:0A0000008031022888018431D62CDB
:10099400303023008E0021009E0108006400800195
:1009A4000131890BD12C0034FC01FD01203084007D
:1009B4000030850010308431D0248431200085310A
:1009C400A42D013070067104031DE92CEA2CED2CD2
:1009D40020000E17F32C20000E130130FC00003011
:1009E400FD00013072067304031DF92CFA2CFC2C53
:1009F4000E15022D0E110230FC000030FD00022DF8
:100A04000800F201F3017308803AFF0080307F028E
:100A1400031D0E2D05307202031C112D122D142DF1
:100A2400272D272D00000130F2070030F33D730815
:100A3400803AFF0080307F02031D222D05307202B0
:100A4400031C252D262D142D272D0130F0020030F6
:100A5400F13B71087004031D302D312D032D322D0F
:100A6400080071087004031D382D392D4D2D4130B7
:100A740021009D009D143E2D9D18412D422D3E2D9B
:100A84001D101C08F200F3017208F0007308F10055
:100A9400682D682D682D013070067104031D532DD7
:100AA400542D682D453021009D009D14592D9D180D
:100AB4005C2D5D2D592D1D101C08F200F3017208E8
:100AC400F0007308F100682D682D682D08000230CD
:100AD4007C067D04031D6F2D702D7C2D0130F000EC
:100AE4000030F1000030F2000030F3008431E324E0
:100AF4008531A32D01307C067D04031D822D832DB9
:100B04008F2D0030F0000030F1000130F200003091
:100B1400F3008431E3248531A32D7D087C04031D77
:100B2400942D952DA32D0130F0000030F1000130FB
:100B3400F2000030F3008431E3248531A32DA32D8A
:100B4400A32D080021008C018D0130308E0020007F
:100B54008C018D018E018631162685318431CA249B
:100B64008531B42D0130F0000030F100853133259A
:100B740085317108FB01FB077008FA01FA077B084D
:100B8400803AFF0080307F02031DCA2D47307A026D
:100B9400003003180130F400F5017408F6007508FC
:100BA400F7000030F0000030F10085313325853145
:100BB4007108FB01FB077008FA01FA077B08803A09
:100BC400FF0080307F02031DE92D47307A02003098
:100BD40003180130F400F5017408F8007508F900F1
:100BE40077087604031DF72DF82D022E7908780472
:100BF400031DFD2DFE2D022E853169258531B42D71
:100C04007708F101F1077608F001F0077908F3019C
:100C1400F3077808F201F2078431E3248531B42D17
:100C2400B42DB42D803102282000B001B101310867
:100C3400803AFF0080307F02031D222E0C303002E8
:100C4400031C252E262E282E4D2E4D2E20008E15CB
:100C54000830F0000030F100853103258631200092
:100C64008E110830F0000030F10085310325863103
:100C740001302000B0070030B13D3108803AFF0058
:100C840080307F02031D482E0C303002031C4B2E93
:100C94004C2E282E4D2E2830F0000330F1008531E3
:100CA400032586312000B201B3013308803AFF00E6
:100CB40080307F02031D602E0C303202031C632E31
:100CC400642E662E8B2E8B2E20008E150830F0009D
:100CD4000030F10085310325863120008E11083063
:100CE400F0000030F1008531032586310130200009
:100CF400B2070030B33D3308803AFF0080307F02F2
:100D0400031D862E0C303202031C892E8A2E662E79
:100D14008B2E2830F0000330F10085310325863115
:100D24002000B401B5013508803AFF0080307F020D
:100D3400031D9E2E0C303402031CA12EA22EA42EC1
:100D4400C92EC92E20008E150830F0000030F100A5
:100D540085310325863120008E110830F0000030E3
:100D6400F10085310325863101302000B4070030BD
:100D7400B53D3508803AFF0080307F02031DC42E44
:100D84000C303402031CC72EC82EA42EC92E2830C2
:100D9400F0000330F1008531032586312000B601CF
:100DA400B7013708803AFF0080307F02031DDC2E34
:100DB4000C303602031CDF2EE02EE22E072F072F05
:100DC40020008E150830F0000030F1008531032535
:100DD400863120008E110830F0000030F10085319A
:100DE4000325863101302000B6070030B73D3708AF
:100DF400803AFF0080307F02031D022F0C30360240
:100E0400031C052F062FE22E072F2830F000033095
:100E1400F1008531032586312000B801B901390874
:100E2400803AFF0080307F02031D1A2F50303802B1
:100E3400031C1D2F1E2F202F452F452F20008E15FC
:100E44000430F0000030F1008531032586312000A4
:100E54008E110430F0000030F10085310325863115
:100E640001302000B8070030B93D3908803AFF004E
:100E740080307F02031D402F50303802031C432F63
:100E8400442F202F452FAA30F0000130F100853186
:100E9400032586312000BA01BB013B08803AFF00DC
:100EA40080307F02031D582F50303A02031C5B2F01
:100EB4005C2F5E2F832F832F20008E150430F000CB
:100EC4000030F10085310325863120008E11043075
:100ED400F0000030F1008531032586310130200017
:100EE400BA070030BB3D3B08803AFF0080307F02E8
:100EF400031D7E2F50303A02031C812F822F5E2F58
:100F0400832FAB30F0000130F100853103258631A9
:100F14002000BC01BD013D08803AFF0080307F0203
:100F2400031D962F50303C02031C992F9A2F9C2F9F
:100F3400C12FC12F20008E150430F0000030F100C5
:100F440085310325863120008E110430F0000030F5
:100F5400F10085310325863101302000BC070030C3
:100F6400BD3D3D08803AFF0080307F02031DBC2F49
:100F740050303C02031CBF2FC02F9C2FC12FAB301D
:100F8400F0000130F1008531032586312000BE01D7
:100F9400BF013F08803AFF0081307F02031DD42F38
:100FA40090303E02031CD72FD82FDA2FFF2FFF2FAC
:100FB40020008E150130F0000030F100853103254A
:100FC400863120008E110130F0000030F1008531AF
:100FD4000325863101302000BE070030BF3D3F08A5
:100FE400803AFF0081307F02031DFA2F90303E02C9
:0C0FF400031CFD2FFE2FDA2FFF2F08003A
:020000040001F9
:02000E00E4F715
:00000001FF
