:0A0000008031022888018631DD2ED0
:100DA200303023008E0021009E0108006400800183
:100DB2000131890BD82E0034FC01FD012030840062
:100DC2000030850012308631D726863120008731E7
:100DD2008E2F013070067104031DF02EF12EF42EB9
:100DE20020000E17012F20000E132F082E04031DC2
:100DF200FB2EFC2E012F0130FC000030FD00012FE4
:100E0200013072067304031D072F082F0A2F8E1755
:100E1200172F8E132F082E04031D102F112F172F9B
:100E22000230FC000030FD00172F172F0800710858
:100E32007004031D1D2F1E2F322F413021009D00F3
:100E42009D14232F9D18262F272F232F1D101C089A
:100E5200F200F3017208F0007308F1004D2F4D2FDC
:100E62004D2F013070067104031D382F392F4D2F7D
:100E7200453021009D009D143E2F9D18412F422F89
:100E82003E2F1D101C08F200F3017208F0007308D7
:100E9200F1004D2F4D2F4D2F080001302000AE00E4
:100EA2000030AF0002307C067D04031D592F5A2FFB
:100EB200662F0130F0000030F1000030F200003007
:100EC200F3008631EA2687318D2F01307C067D04BE
:100ED200031D6C2F6D2F792F0030F0000030F100D0
:100EE2000130F2000030F3008631EA2687318D2F7F
:100EF2007D087C04031D7E2F7F2F8D2F0130F00093
:100F02000030F1000130F2000030F3008631EA26B1
:100F120087318D2F8D2F8D2F080021008C018D019F
:100F220030308E0020008C018D018E018631D12659
:100F320087319B2F0130F0000030F10087311827F4
:100F420087317108FB01FB077008FA01FA077B0879
:100F5200803AFF0080307F02031DB12F74307A0285
:100F6200003003180130F400F5017408F60075082A
:100F7200F7000030F0000030F10087311827873188
:100F82007108FB01FB077008FA01FA077B08803A37
:100F9200FF0080307F02031DD02F74307A020030B0
:100FA20003180130F400F5017408F8007508F9001F
:100FB20077087604031DDE2FDF2FE92F79087804E6
:100FC200031DE42FE52FE92F87314E2787319B2F11
:100FD2002000AE01AF017708F101F1077608F001B8
:100FE200F0077908F301F3077808F201F207863176
:0E0FF200EA2687319B2F9B2F9B2F80310228F0
:020000040001F9
:02000E00E4FF0D
:00000001FF
