:060000000A128A113E2DD8
:100A6C0064008001840A0406031900340406372D3F
:100A7C0083133430840046300A128A1136250A1248
:100A8C008A1183010A128A114B2F013070067104EE
:100A9C00031D512D522D562D8312031387145D2DDA
:100AAC008312031387100230C2000030C3000130E0
:100ABC0072067304031D632D642D662D05146C2DB5
:100ACC0005100130C2000030C3006C2D080004304A
:100ADC00F2007208F300FB30F2007208F400772D7C
:100AEC00772D0130F402031D7C2D7D2D772D7E2D6D
:100AFC000130F302031D832D842D712D852D0130C2
:100B0C00F0020030031CF103F10271087004031DA4
:100B1C00902D912D6D2D922D080083120313AB0196
:100B2C00A71F992D9A2DA32DA609A709A60A03196B
:100B3C00A70AAB010314AB0DA32D2608F000270860
:100B4C00F100F2018E30A9002908F3002B08AA004D
:100B5C002A08F4000A128A11D0260A128A11700887
:100B6C0083120313A6007108A7007208A800BE2DFB
:100B7C000800F000F008031DC42DC52DC92D8316E7
:100B8C0003130514EA2D7008013A031DCE2DCF2D49
:100B9C00D32D831603138514EA2D7008023A031D16
:100BAC00D82DD92DDD2D831603130515EA2D7008CC
:100BBC00033A031DE22DE32DEA2D8316031385154D
:100BCC00EA2DEA2DEA2DEA2D8430831603139F00BB
:100BDC00080001308312031342064304031DF72D52
:100BEC00F82D062E0130F0000030F1000030F2003C
:100BFC000030F3000A128A114B250A128A111E2E9C
:100C0C0002308312031342064304031D0E2E0F2ED3
:100C1C001E2E0030F0000030F1000130F2000030E8
:100C2C00F3000A128A114B250A128A111E2E1E2E4F
:100C3C000800F400831203131F147408F20002302E
:100C4C000310F20DFF3E031D262E0310720D013E04
:100C5C009F00831603130C13831203130C138316B8
:100C6C0003139E01831203139E013C2E0C1F3F2E77
:100C7C00402E3C2E412E831603131E08F200F30166
:100C8C007208F5007308F600831203131E08F200B5
:100C9C00F3017208F300F2017208F5070318F60A63
:100CAC007308F6077608F101F1077508F001F007F3
:100CBC005F2E0800FA1F632E642E8C2E00308312D8
:100CCC000313A0000030A1008030A2007809A3001B
:100CDC007909A4007A09A500A30A0319A40A031927
:100CEC00A50A2308A00724080318240F7E2E7F2EA4
:100CFC00A10725080318250F842E852EA20720088E
:100D0C00F8002108F9002208FA008C2EFD1F8F2E06
:100D1C00902EB82E003083120313A0000030A100D7
:100D2C008030A2007B09A3007C09A4007D09A500EA
:100D3C00A30A0319A40A0319A50A2308A007240867
:100D4C000318240FAA2EAB2EA10725080318250F74
:100D5C00B02EB12EA2072008FB002108FC002208AF
:100D6C00FD00B82E8030FA068030FD067D087A0230
:100D7C00031DC62E7C087902031DC62E7B08780243
:100D8C000318C92ECA2ECC2E0310CF2E0314CF2E2F
:100D9C00CF2E08007308031DD42EDC2E72087104AC
:100DAC007004031DDA2EDB2EF22EDC2E0030F00048
:100DBC000030F1000030F2004A2F4A2FF22E0130A1
:100DCC00F5007508F30701300310F20CF10CF00C70
:100DDC00FF3E031DEA2EF22EFE307205031DF72E88
:100DEC00F82EE52E102F102F0130F5007508F307A3
:100DFC000130F007003003180130F1070030031800
:100E0C000130F20701300310F20CF10CF00CFF3E34
:100E1C00031D092FFF307205031D152F162FFA2EF7
:100E2C00232F232F0130F30201300310F00DF10DAD
:100E3C00F20DFF3E031D1B2F232FF11F262F272FF3
:100E4C00182F73182A2F2B2F312FFF30F0057F30DE
:100E5C00F105FF30F2050310F30C7308F500F601F1
:100E6C00F70110300310F50DF60DF70DFF3E031DC5
:100E7C00382F7508F0047608F1047708F20474082A
:100E8C00031D492F4A2FF2170800831603138601FE
:100E9C008701880189014030F0001F30F1000A12EF
:100EAC008A116D250A128A1100300A128A11BF2587
:100EBC000A128A1101300A128A11BF250A128A11EC
:100ECC00672F00300A128A111F260A128A11710824
:100EDC0083120313B301B3077008B201B2070030D9
:100EEC00F800C030F9003F30FA003308A701A7071B
:100EFC003208A601A6070A128A1193250A128A1132
:100F0C00831203132608FB002708FC002808FD00A9
:100F1C000A128A1160260A128A110030031C013051
:100F2C0083120313AC00AD012C08AE002D08AF00EA
:100F3C0001300A128A111F260A128A1171088312B3
:100F4C000313B301B3077008B201B2070030F80005
:100F5C00C030F9003F30FA003308A701A707320868
:100F6C00A601A6070A128A1193250A128A11831266
:100F7C0003132608FB002708FC002808FD000A12B2
:100F8C008A1160260A128A110030031C0130831268
:100F9C000313AC00AD012C08B0002D08B1002F08D4
:100FAC002E04031DDA2FDB2FE72F31083004031D2D
:100FBC00E02FE12FE72F0A128A11EF250A128A116E
:100FCC00672F831203132F08F101F1072E08F0018C
:100FDC00F0073108F301F3073008F201F2070A12A7
:100FEC008A114B250A128A11672F672F672F0A1255
:040FFC008A1100282E
:02400E00F5FFBC
:00000001FF
