:060000000A128A11942D82
:100B0A00FF30831603138900FF3091000800640048
:100B1A008001840A04060319003404068D2DFC01A1
:100B2A00FD0183132030840032300A128A118C2589
:100B3A000A128A1183010A128A112D2F0430F20037
:100B4A007208F3002330F2007208F400AD2DAD2DC7
:100B5A000130F402031DB22DB32DAD2DB42D013099
:100B6A00F302031DB92DBA2DA72DBB2D0130F002BA
:100B7A000030031CF103F10271087004031DC62D35
:100B8A00C72DA32DC82D08000430F2007208F30007
:100B9A002330F2007208F400D32DD32D0130F40271
:100BAA00031DD82DD92DD32DDA2D0130F302031DC3
:100BBA00DF2DE02DCD2DE12D0130F0020030031C98
:100BCA00F103F10271087004031DEC2DED2DC92DFE
:100BDA00EE2D0800F5008312031385100510750821
:100BEA0086000530F0000030F1000A128A11C9258A
:100BFA000A128A118312031305150530F00000301A
:100C0A00F1000A128A11C9250A128A1183120313E2
:100C1A0005110530F0000030F1000A128A11C925C9
:100C2A000A128A110800013070067104031D1E2E73
:100C3A001F2E232E831203130717312E8312031339
:100C4A0007132F082E04031D2B2E2C2E312E0130B4
:100C5A00FC000030FD00312E013072067304031DC2
:100C6A00372E382E3A2E8717472E87132F082E0431
:100C7A00031D402E412E472E0230FC000030FD009D
:100C8A00472E472E080071087004031D4D2E4E2E64
:100C9A00632E1530831203139F009F14542E9F183E
:100CAA00572E582E542E1F101E08F200F3017208F8
:100CBA00F0007308F1007F2E7F2E7F2E0130700620
:100CCA007104031D692E6A2E7F2E193083120313B5
:100CDA009F009F14702E9F18732E742E702E1F1053
:100CEA001E08F200F3017208F0007308F1007F2E6B
:100CFA007F2E7F2E0800013083120313AE000030CE
:100D0A00AF0002307C067D04031D8C2E8D2E9B2E97
:100D1A000130F0000030F1000030F2000030F30042
:100D2A000A128A1118260A128A11C62E01307C0666
:100D3A007D04031DA12EA22EB02E0030F00000303B
:100D4A00F1000130F2000030F3000A128A1118266D
:100D5A000A128A11C62E7D087C04031DB52EB62EF2
:100D6A00C62E0130F0000030F1000130F2000030F0
:100D7A00F3000A128A1118260A128A11C62EC62EE2
:100D8A00C62E08002830F0000030F1000A128A113D
:100D9A00C9250A128A118312031305100511851039
:100DAA0008300A128A11EF250A128A110F30F6004A
:100DBA007608F700E12EE12E0130F702031DE62E38
:100DCA00E72EE12EE82E38300A128A11EF250A1290
:100DDA008A110F30F6007608F800F42EF42E01304E
:100DEA00F802031DF92EFA2EF42EFB2E0F300A12EA
:100DFA008A11EF250A128A110F30F6007608F900D7
:100E0A00072F072F0130F902031D0C2F0D2F072F73
:100E1A000E2F01300A128A11EF250A128A110530A3
:100E2A00F0000030F1000A128A11C9250A128A114B
:100E3A0007300A128A11EF250A128A110530F000CA
:100E4A000030F1000A128A11C9250A128A11080013
:100E5A008316031385018601870183120313850113
:100E6A00860187010A128A11C7260A128A1140309E
:100E7A000A128A11EF250A128A110530F000003091
:100E8A00F1000A128A11A3250A128A1180300A1265
:100E9A008A11EF250A128A11D030F0000730F100CA
:100EAA000A128A11A3250A128A1183120313051141
:100EBA0014308600851005140530F0000030F1006A
:100ECA000A128A11A3250A128A118312031305151D
:100EDA000530F0000030F1000A128A11A3250A1227
:100EEA008A1183120313051105100530F000003032
:100EFA00F1000A128A11A3250A128A110A128A110A
:100F0A0085250A128A11892F0130F0000030F1007C
:100F1A000A128A1148260A128A11710883120313C7
:100F2A00B701B7077008B601B6073708803AFF005D
:100F3A0080307F02031DA32FAB3036020030031826
:100F4A000130FA00FB017A0883120313B2007B080E
:100F5A00B3000030F0000030F1000A128A1148266E
:100F6A000A128A11710883120313B701B7077008AE
:100F7A00B601B6073708803AFF0080307F02031DAA
:100F8A00C82FAB303602003003180130FA00FB01DB
:100F9A007A0883120313B4007B08B50033083204BD
:100FAA00031DD82FD92FE52F35083404031DDE2F52
:100FBA00DF2FE52F0A128A1180260A128A11892F39
:100FCA0083120313AE01AF013308F101F1073208AE
:100FDA00F001F0073508F301F3073408F201F207CC
:100FEA000A128A1118260A128A11892F892F892F23
:060FFA000A128A11002812
:02400E00F5FFBC
:00000001FF
