:100000000A128A11C42B00308A000408840A82076D
:100010000034533474346134723474342134003411
:10074A0064008001840A0406031900340406A62BF7
:10075A00F20083120313851572080A128A11F22312
:10076A000A128A110800F200831203138511720813
:10077A00803E0A128A11F2230A128A110800831390
:10078A003430840046300A128A11A5230A128A11CB
:10079A0083010A128A11752EF30000300A128A1197
:1007AA00B8230A128A1173080A128A11AD230A128F
:1007BA008A11080083120313851101300A128A1163
:1007CA00F2230A128A110330F3009730F200F20B77
:1007DA00EC2BF30BEC2BF12B0800F1000D30F000A1
:1007EA00F00BF52B7108F00004300310F00CFF3EFB
:1007FA00031DFA2B70080F3983120313880085141E
:10080A00851071080F398800851485100800013099
:10081A0070067104031D122C132C172C8312031358
:10082A0007141E2C8312031307100130C200003074
:10083A00C300013072067304031D242C252C272CB7
:10084A0087142D2C87100230C2000030C3002D2CD3
:10085A000800F300831203138515442C73088400DF
:10086A000A128A1103200A128A110A128A11F22321
:10087A000A128A110130F2007208F307442C730835
:10088A0084000A128A1103200A128A110038031DF1
:10089A004F2C502C332C512C08000430F2007208D3
:1008AA00F3001F30F2007208F4005C2C5C2C01305B
:1008BA00F402031D612C622C5C2C632C0130F302C0
:1008CA00031D682C692C562C6A2C0130F00200306A
:1008DA00031CF103F10271087004031D752C762CB8
:1008EA00522C772C080083120313AB01A71F7E2C0E
:1008FA007F2C882CA609A709A60A0319A70AAB0107
:10090A000314AB0D882C2608F0002708F100F20129
:10091A008E30A9002908F3002B08AA002A08F4003F
:10092A000A128A11FA250A128A117008831203130D
:10093A00A6007108A7007208A800A32C0800F600F8
:10094A00831203139F017608F20001300310F20D9F
:10095A00FF3E031DAB2C0310720D9F001F149F1442
:10096A00B62C9F18B92CBA2CB62C1F108316031359
:10097A001E08F200F3010830831203131E0200302E
:10098A00031C0130F400F50172087404F0007308C6
:10099A007504F100D02C08000130831203134206BB
:1009AA004304031DD92CDA2CE82C0130F000003066
:1009BA00F1000030F2000030F3000A128A110C2410
:1009CA000A128A11002D02308312031342064304CD
:1009DA00031DF02CF12C002D0030F0000030F10046
:1009EA000130F2000030F3000A128A110C240A12B4
:1009FA008A11002D002D080071087004031D062DB0
:100A0A00072D0B2D8316031309142F2D01307006A1
:100A1A007104031D112D122D162D8316031389142B
:100A2A002F2D023070067104031D1C2D1D2D212D42
:100A3A008316031309152F2D033070067104031D45
:100A4A00272D282D2F2D8316031389152F2D2F2D92
:100A5A002F2D2F2D8430831603139F000800063094
:100A6A00831603139F000330F4007408F60085010F
:100A7A008801831203138511851005111430F500BE
:100A8A007930F400F40B472DF50B472D4C2D7608E1
:100A9A00831203138800851485100730F5007D3012
:100AAA00F400F40B562DF50B562D831203138514FF
:100ABA0085104230F400F40B602D64008312031396
:100ACA00851485104230F400F40B692D640002305D
:100ADA008312031388008514851028300A128A119C
:100AEA00F2230A128A110F300A128A11F2230A1209
:100AFA008A110A128A11DF230A128A1106300A128F
:100B0A008A11F2230A128A110800FA1F8D2D8E2DDE
:100B1A00B62D003083120313A0000030A1008030EC
:100B2A00A2007809A3007909A4007A09A500A30AFA
:100B3A000319A40A0319A50A2308A00724080318FD
:100B4A00240FA82DA92DA10725080318250FAE2DBE
:100B5A00AF2DA2072008F8002108F9002208FA00A0
:100B6A00B62DFD1FB92DBA2DE22D003083120313C5
:100B7A00A0000030A1008030A2007B09A3007C09FC
:100B8A00A4007D09A500A30A0319A40A0319A50A4A
:100B9A002308A00724080318240FD42DD52DA10754
:100BAA0025080318250FDA2DDB2DA2072008FB00E4
:100BBA002108FC002208FD00E22D8030FA06803070
:100BCA00FD067D087A02031DF02D7C087902031DBB
:100BDA00F02D7B0878020318F32DF42DF62D03105F
:100BEA00F92D0314F92DF92D08007308031DFE2DA4
:100BFA00062E720871047004031D042E052E1C2E85
:100C0A00062E0030F0000030F1000030F200742EA1
:100C1A00742E1C2E0130F5007508F30701300310FD
:100C2A00F20CF10CF00CFF3E031D142E1C2EFE30AC
:100C3A007205031D212E222E0F2E3A2E3A2E013036
:100C4A00F5007508F3070130F0070030031801308A
:100C5A00F107003003180130F20701300310F20CDB
:100C6A00F10CF00CFF3E031D332EFF307205031DFD
:100C7A003F2E402E242E4D2E4D2E0130F3020130F0
:100C8A000310F00DF10DF20DFF3E031D452E4D2E02
:100C9A00F11F502E512E422E7318542E552E5B2EB4
:100CAA00FF30F0057F30F105FF30F2050310F30C39
:100CBA007308F500F601F70110300310F50DF60D73
:100CCA00F70DFF3E031D622E7508F0047608F10445
:100CDA007708F2047408031D732E742EF2170800A5
:100CEA0083160313850186018701880189010A1287
:100CFA008A1134250A128A110A128A1132270A1213
:100D0A008A110030F0000030F1000A128A11012520
:100D1A000A128A110130F0000030F1000A128A1119
:100D2A0001250A128A11992E00300A128A11A42466
:100D3A000A128A11710883120313B301B3077008E8
:100D4A00B201B207CD30F8000C30F9004030FA0099
:100D5A003308A701A7073208A601A6070A128A11B3
:100D6A0078240A128A11831203132608FB00270823
:100D7A00FC002808FD000A128A118A250A128A1123
:100D8A000030031C013083120313AC00AD012C08A0
:100D9A00AE002D08AF0001300A128A11A4240A12EB
:100DAA008A11710883120313B301B3077008B201E1
:100DBA00B207CD30F8000C30F9004030FA003308A1
:100DCA00A701A7073208A601A6070A128A117824E2
:100DDA000A128A11831203132608FB002708FC0053
:100DEA002808FD000A128A118A250A128A1100307F
:100DFA00031C013083120313AC00AD012C08B000B0
:100E0A002D08B1002F082E04031D0C2F0D2F192FAA
:100E1A0031083004031D122F132F192F0A128A11B9
:100E2A00D1240A128A11992E831203132F08F10171
:100E3A00F1072E08F001F0073108F301F307300833
:100E4A00F201F2070A128A110C240A128A11992E47
:100E5A00992E992E0A128A110028831203138711D8
:100E6A00071238300A128A11D1230A128A11E8307D
:100E7A00F0000330F1000A128A1152240A128A1170
:100E8A0037300A128A11D1230A128A11E830F00087
:100E9A000330F1000A128A1152240A128A113630DA
:100EAA000A128A11D1230A128A11E830F00003309B
:100EBA00F1000A128A1152240A128A1135300A12D2
:100ECA008A11D1230A128A11E830F0000330F100A6
:100EDA000A128A1152240A128A1134300A128A1109
:100EEA00D1230A128A11E830F0000330F1000A1205
:100EFA008A1152240A128A1133300A128A11D12312
:100F0A000A128A11831203138715C830F0000030C1
:100F1A00F1000A128A1152240A128A118312031347
:100F2A008711BC30F0000230F1000A128A115224F3
:100F3A000A128A118312031387156430F0000030F5
:100F4A00F1000A128A1152240A128A1132300A1244
:100F5A008A11D1230A128A116430F0000030F1009C
:100F6A000A128A1152240A128A1183120313871150
:100F7A00BC30F0000230F1000A128A1152240A121F
:100F8A008A11831203138715C830F0000030F1006C
:100F9A000A128A1152240A128A1131300A128A114B
:100FAA00D1230A128A11831203138711BC30F0006D
:100FBA000230F1000A128A1152240A128A1183128B
:100FCA00031307162C30F0000130F1000A128A11BF
:100FDA0052240A128A1183120313071200300A12CA
:100FEA008A11B8230A128A1101300A128A112E2490
:060FFA000A128A11080032
:02400E00F5FFBC
:00000001FF
