:100000000A128A11CB2B00308A000408840A820766
:100010000034533474346134723474342134003411
:1007580064008001840A0406031900340406AD2BE2
:10076800F20083120313851572080A128A11F923FD
:100778000A128A110800F200831203138511720805
:10078800803E0A128A11F9230A128A11080083137B
:100798003430840046300A128A11AC230A128A11B6
:1007A80083010A128A117C2EF30000300A128A1182
:1007B800BF230A128A1173080A128A11B4230A1273
:1007C8008A11080083120313851101300A128A1155
:1007D800F9230A128A110330F3009730F200F20B62
:1007E800F32BF30BF32BF82B0800F1000D30F0007E
:1007F800F00BFC2B7108F00004300310F00CFF3EE6
:10080800031D012C70080F39831203138800851407
:10081800851071080F39880085148510080001308B
:1008280070067104031D192C1A2C1E2C8312031335
:100838008714252C8312031387100230C20000305E
:10084800C300013072067304031D2B2C2C2C2E2C94
:100858000514342C05100130C2000030C300342CBC
:100868000800F3008312031385154B2C73088400CA
:100878000A128A1103200A128A110A128A11F9230C
:100888000A128A110130F2007208F3074B2C730820
:1008980084000A128A1103200A128A110038031DE3
:1008A800562C572C3A2C582C08000430F2007208A9
:1008B800F300FB30F2007208F400632C632C013063
:1008C800F402031D682C692C632C6A2C0130F30296
:1008D800031D6F2C702C5D2C712C0130F002003040
:1008E800031CF103F10271087004031D7C2C7D2C9C
:1008F800592C7E2C080083120313AB01A71F852CEB
:10090800862C8F2CA609A709A60A0319A70AAB01EA
:100918000314AB0D8F2C2608F0002708F100F20114
:100928008E30A9002908F3002B08AA002A08F40031
:100938000A128A1101260A128A11700883120313F7
:10094800A6007108A7007208A800AA2C0800F600E3
:10095800831203139F017608F20001300310F20D91
:10096800FF3E031DB22C0310720D9F001F149F142D
:10097800BD2C9F18C02CC12CBD2C1F10831603132F
:100988001E08F200F3010830831203131E02003020
:10099800031C0130F400F50172087404F0007308B8
:1009A8007504F100D72C08000130831203134206A6
:1009B8004304031DE02CE12CEF2C0130F000003043
:1009C800F1000030F2000030F3000A128A111324FB
:1009D8000A128A11072D02308312031342064304B8
:1009E800031DF72CF82C072D0030F0000030F10023
:1009F8000130F2000030F3000A128A1113240A129F
:100A08008A11072D072D080071087004031D0D2D8C
:100A18000E2D122D831603130514362D0130700682
:100A28007104031D182D192D1D2D8316031385140C
:100A3800362D023070067104031D232D242D282D18
:100A4800831603130515362D033070067104031D34
:100A58002E2D2F2D362D831603138515362D362D65
:100A6800362D362D8430831603139F000800063078
:100A7800831603139F000330F4007408F600850101
:100A88008801831203138511851005111430F500B0
:100A98007930F400F40B4E2DF50B4E2D532D7608BE
:100AA800831203138800851485100730F5007D3004
:100AB800F400F40B5D2DF50B5D2D831203138514E3
:100AC80085104230F400F40B672D64008312031381
:100AD800851485104230F400F40B702D6400023048
:100AE8008312031388008514851028300A128A118E
:100AF800F9230A128A110F300A128A11F9230A12ED
:100B08008A110A128A11E6230A128A1106300A1279
:100B18008A11F9230A128A110800FA1F942D952DBB
:100B2800BD2D003083120313A0000030A1008030D7
:100B3800A2007809A3007909A4007A09A500A30AEC
:100B48000319A40A0319A50A2308A00724080318EF
:100B5800240FAF2DB02DA10725080318250FB52D9B
:100B6800B62DA2072008F8002108F9002208FA008B
:100B7800BD2DFD1FC02DC12DE92D0030831203139B
:100B8800A0000030A1008030A2007B09A3007C09EE
:100B9800A4007D09A500A30A0319A40A0319A50A3C
:100BA8002308A00724080318240FDB2DDC2DA10738
:100BB80025080318250FE12DE22DA2072008FB00C8
:100BC8002108FC002208FD00E92D8030FA0680305B
:100BD800FD067D087A02031DF72D7C087902031DA6
:100BE800F72D7B0878020318FA2DFB2DFD2D031035
:100BF800002E0314002E002E08007308031D052E76
:100C08000D2E720871047004031D0B2E0C2E232E5A
:100C18000D2E0030F0000030F1000030F2007B2E85
:100C28007B2E232E0130F5007508F30701300310E1
:100C3800F20CF10CF00CFF3E031D1B2E232EFE3090
:100C48007205031D282E292E162E412E412E013005
:100C5800F5007508F3070130F0070030031801307C
:100C6800F107003003180130F20701300310F20CCD
:100C7800F10CF00CFF3E031D3A2EFF307205031DE8
:100C8800462E472E2B2E542E542E0130F3020130BF
:100C98000310F00DF10DF20DFF3E031D4C2E542EE6
:100CA800F11F572E582E492E73185B2E5C2E622E7C
:100CB800FF30F0057F30F105FF30F2050310F30C2B
:100CC8007308F500F601F70110300310F50DF60D65
:100CD800F70DFF3E031D692E7508F0047608F10430
:100CE8007708F2047408031D7A2E7B2EF217080089
:100CF80083160313850186018701880189010A1279
:100D08008A113B250A128A110A128A1139270A12F6
:100D18008A110030F0000030F1000A128A1108250B
:100D28000A128A110130F0000030F1000A128A110B
:100D380008250A128A11A02E00300A128A11AB2443
:100D48000A128A11710883120313B301B3077008DA
:100D5800B201B2070030F800C030F9003F30FA00A5
:100D68003308A701A7073208A601A6070A128A11A5
:100D78007F240A128A11831203132608FB0027080E
:100D8800FC002808FD000A128A1191250A128A110E
:100D98000030031C013083120313AC00AD012C0892
:100DA800AE002D08AF0001300A128A11AB240A12D6
:100DB8008A11710883120313B301B3077008B201D3
:100DC800B2070030F800C030F9003F30FA003308AD
:100DD800A701A7073208A601A6070A128A117F24CD
:100DE8000A128A11831203132608FB002708FC0045
:100DF8002808FD000A128A1191250A128A1100306A
:100E0800031C013083120313AC00AD012C08B000A1
:100E18002D08B1002F082E04031D132F142F202F87
:100E280031083004031D192F1A2F202F0A128A1196
:100E3800D8240A128A11A02E831203132F08F10155
:100E4800F1072E08F001F0073108F301F307300825
:100E5800F201F2070A128A1113240A128A11A02E2B
:100E6800A02EA02E0A128A11002838300A128A11E0
:100E7800D8230A128A11E830F0000330F1000A1270
:100E88008A1159240A128A1137300A128A11D82372
:100E98000A128A11E830F0000330F1000A128A11B0
:100EA80059240A128A1136300A128A11D8230A12D2
:100EB8008A11E830F0000330F1000A128A1159242F
:100EC8000A128A1135300A128A11D8230A128A1195
:100ED800E830F0000330F1000A128A1159240A128E
:100EE8008A1134300A128A11D8230A128A11E8307A
:100EF800F0000330F1000A128A1159240A128A11EB
:100F080033300A128A11D8230A128A118312031362
:100F18008715C830F0000030F1000A128A115924F0
:100F28000A128A11831203138711BC30F0000230B1
:100F3800F1000A128A1159240A128A118312031322
:100F480087156430F0000030F1000A128A11592424
:100F58000A128A1132300A128A11D8230A128A1107
:100F68006430F0000030F1000A128A1159240A1284
:100F78008A11831203138711BC30F0000230F1008C
:100F88000A128A1159240A128A1183120313871527
:100F9800C830F0000030F1000A128A1159240A12F0
:100FA8008A1131300A128A11D8230A128A1183123F
:100FB80003138711BC30F0000230F1000A128A11C5
:100FC80059240A128A118312031307162C30F000D1
:100FD8000130F1000A128A1159240A128A110030CC
:100FE8000A128A11BF230A128A1101300A128A11C1
:080FF80035240A128A110800D9
:02400E00F5FFBC
:00000001FF
