:060000000A128A11AE2D68
:100B3E00FF30831603138900FF3091000800640014
:100B4E008001840A0406031900340406A72DFC0153
:100B5E00FD0183132030840032300A128A11A6253B
:100B6E000A128A1183010A128A114D2F0430F200E3
:100B7E007208F3002330F2007208F400C72DC72D5F
:100B8E000130F402031DCC2DCD2DC72DCE2D0130FD
:100B9E00F302031DD32DD42DC12DD52D0130F0021E
:100BAE000030031CF103F10271087004031DE02DE7
:100BBE00E12DBD2DE22D0800F500831203138510E3
:100BCE000510750886000530F0000030F1000A129D
:100BDE008A11BD250A128A118312031305150530D9
:100BEE00F0000030F1000A128A11BD250A128A1196
:100BFE008312031305110530F0000030F1000A12C4
:100C0E008A11BD250A128A110800F50083120313FA
:100C1E008510750886000514F6010314F60D182EBE
:100C2E00182E0130F602031D1D2E1E2E182E8312B5
:100C3E00031305150530F0000030F1000A128A1179
:100C4E00BD250A128A1183120313051105100530F2
:100C5E00F0000030F1000A128A11BD250A128A1125
:100C6E000800013070067104031D3E2E3F2E432EE8
:100C7E00831203130717512E8312031307132F0822
:100C8E002E04031D4B2E4C2E512E0130FC00003035
:100C9E00FD00512E013072067304031D572E582E7F
:100CAE005A2E8717672E87132F082E04031D602ECA
:100CBE00612E672E0230FC000030FD00672E672E7D
:100CCE00080071087004031D6D2E6E2E832E1530D4
:100CDE00831203139F009F14742E9F18772E782E65
:100CEE00742E1F101E08F200F3017208F000730834
:100CFE00F1009F2E9F2E9F2E013070067104031D52
:100D0E00892E8A2E9F2E1930831203139F009F1453
:100D1E00902E9F18932E942E902E1F101E08F200C8
:100D2E00F3017208F0007308F1009F2E9F2E9F2E84
:100D3E000800013083120313AE000030AF00023002
:100D4E007C067D04031DAC2EAD2EBB2E0130F000B3
:100D5E000030F1000030F2000030F3000A128A1168
:100D6E0038260A128A11E62E01307C067D04031DF8
:100D7E00C12EC22ED02E0030F0000030F100013016
:100D8E00F2000030F3000A128A1138260A128A1174
:100D9E00E62E7D087C04031DD52ED62EE62E0130C0
:100DAE00F0000030F1000130F2000030F3000A12C2
:100DBE008A1138260A128A11E62EE62EE62E080031
:100DCE002830F0000030F1000A128A11BD250A12F7
:100DDE008A118312031305100511851008300A12AB
:100DEE008A11E3250A128A110F30F6007608F700F1
:100DFE00012F012F0130F702031D062F072F012FA0
:100E0E00082F38300A128A11E3250A128A110F3080
:100E1E00F6007608F800142F142F0130F802031D87
:100E2E00192F1A2F142F1B2F0F300A128A11E32598
:100E3E000A128A110F30F6007608F900272F272F95
:100E4E000130F902031D2C2F2D2F272F2E2F0130AD
:100E5E000A128A11E3250A128A110530F0000030B9
:100E6E00F1000A128A11BD250A128A1107300A12E0
:100E7E008A11E3250A128A110530F0000030F100C4
:100E8E000A128A11BD250A128A110800831603134D
:100E9E00850186018701831203138501860187016F
:100EAE000730831603139C008312031787018316E2
:100EBE00031391010A128A11E7260A128A11813050
:100ECE000A128A110C260A128A1181300A128A110C
:100EDE000C260A128A1181300A128A110C260A1265
:100EEE008A1181300A128A110C260A128A110A12EC
:100EFE008A119F250A128A110A128A119F250A1237
:100F0E008A11892F0130F0000030F1000A128A1187
:100F1E0068260A128A11710883120313B701B707E4
:100F2E007008B601B6073708803AFF0080307F029E
:100F3E00031DA32FAB303602003003180130FA0028
:100F4E00FB017A0883120313B2007B08B300003052
:100F5E00F0000030F1000A128A1168260A128A1176
:100F6E00710883120313B701B7077008B601B607ED
:100F7E003708803AFF0080307F02031DC82FAB3048
:100F8E003602003003180130FA00FB017A08831292
:100F9E000313B4007B08B50033083204031DD82FA9
:100FAE00D92FE52F35083404031DDE2FDF2FE52F53
:100FBE000A128A11A0260A128A11892F831203138C
:100FCE00AE01AF013308F101F1073208F001F0076D
:100FDE003508F301F3073408F201F2070A128A11F9
:100FEE0038260A128A11892F892F892F0A128A11FF
:020FFE000028C9
:02400E00F5FFBC
:00000001FF
