:060000000A128A11CC2D4A
:100B7A00FF30831603138900FF30910008006400D8
:100B8A008001840A0406031900340406C52DFB01FA
:100B9A00FC0183132030840032300A128A11C425E2
:100BAA000A128A1183010A128A116E2F0430F20086
:100BBA007208F3002330F2007208F400E52DE52DE7
:100BCA000130F402031DEA2DEB2DE52DEC2D013049
:100BDA00F302031DF12DF22DDF2DF32D0130F0026A
:100BEA000030031CF103F10271087004031DFE2D8D
:100BFA00FF2DDB2D002E0800013070067104031D45
:100C0A00072E082E0C2E8312031307171A2E83128F
:100C1A00031307132F082E04031D142E152E1A2E44
:100C2A000130FB000030FC001A2E013072067304FA
:100C3A00031D202E212E232E8717302E87132F08CF
:100C4A002E04031D292E2A2E302E0230FB000030DE
:100C5A00FC00302E302E0800F0008312031385109A
:100C6A00051070088600F1010314F10D3D2E3D2E8A
:100C7A000130F102031D422E432E3D2E831203132F
:100C8A000515F2010314F20D4B2E4B2E0130F20220
:100C9A00031D502E512E4B2E831203130511F301FF
:100CAA000314F30D592E592E0130F302031D5E2E43
:100CBA005F2E592E602E0800F00083120313851050
:100CCA00051470088600F1010314F10D6D2E6D2EC6
:100CDA000130F102031D722E732E6D2E831203133F
:100CEA000515F2010314F20D7B2E7B2E0130F20260
:100CFA00031D802E812E7B2E8312031305110510EE
:100D0A00F3010314F30D8A2E8A2E0130F302031D18
:100D1A008F2E902E8A2E912E080071087004031DC2
:100D2A00972E982EAD2E1530831203139F009F1411
:100D3A009E2E9F18A12EA22E9E2E1F101E08F20074
:100D4A00F3017208F0007308F100C92EC92EC92EEA
:100D5A00013070067104031DB32EB42EC92E19304A
:100D6A00831203139F009F14BA2E9F18BD2EBE2E06
:100D7A00BA2E1F101E08F200F3017208F000730861
:100D8A00F100C92EC92EC92E08000130831203139F
:100D9A00AE000030AF0002307B067C04031DD62E65
:100DAA00D72EE52E0130F0000030F1000030F200BD
:100DBA000030F3000A128A1101260A128A11102F32
:100DCA0001307B067C04031DEB2EEC2EFA2E00303C
:100DDA00F0000030F1000130F2000030F3000A1296
:100DEA008A1101260A128A11102F7C087B04031D1E
:100DFA00FF2E002F102F0130F0000030F1000130DB
:100E0A00F2000030F3000A128A1101260A128A112E
:100E1A00102F102F102F08002830F0000030F1009A
:100E2A000A128A11DB250A128A118312031305108A
:100E3A000511851038300A128A1131260A128A11D0
:100E4A000F30F5007508F6002B2F2B2F0130F60214
:100E5A00031D302F312F2B2F322F38300A128A11CF
:100E6A0031260A128A110F30F5007508F7003E2F55
:100E7A003E2F0130F702031D432F442F3E2F452FEB
:100E8A000F300A128A1131260A128A110F30F50020
:100E9A007508F800512F512F0130F802031D562F03
:100EAA00572F512F582F01300A128A1131260A1250
:100EBA008A110530F0000030F1000A128A11DB2590
:100ECA000A128A1104300A128A1131260A128A1168
:100EDA000800831603138501860187018312031311
:100EEA008501860187010A128A1111270A128A11BD
:100EFA0013300A128A1161260A128A110A128A11F9
:100F0A00BD250A128A11892F0130F0000030F10044
:100F1A000A128A1192260A128A117108831203137D
:100F2A00B701B7077008B601B6073708803AFF005D
:100F3A0080307F02031DA32FAB3036020030031826
:100F4A000130F900FA01790883120313B2007A0812
:100F5A00B3000030F0000030F1000A128A11922624
:100F6A000A128A11710883120313B701B7077008AE
:100F7A00B601B6073708803AFF0080307F02031DAA
:100F8A00C82FAB303602003003180130F900FA01DD
:100F9A00790883120313B4007A08B50033083204BF
:100FAA00031DD82FD92FE52F35083404031DDE2F52
:100FBA00DF2FE52F0A128A11CA260A128A11892FEF
:100FCA0083120313AE01AF013308F101F1073208AE
:100FDA00F001F0073508F301F3073408F201F207CC
:100FEA000A128A1101260A128A11892F892F892F3A
:060FFA000A128A11002812
:02400E00F5FFBC
:00000001FF
