:060000000A128A11C32E52
:100D6800FF30831603138900FF30910008006400E8
:100D78008001840A0406031900340406BC2EFC0111
:100D8800FD0183132030840032300A128A11BB26F9
:100D98000A128A1183010A128A11812F0130700602
:100DA8007104031DD82ED92EDD2E831203130717C5
:100DB800EB2E8312031307132F082E04031DE52EB1
:100DC800E62EEB2E0130FC000030FD00EB2E01304A
:100DD80072067304031DF12EF22EF42E8717012FCD
:100DE80087132F082E04031DFA2EFB2E012F023025
:100DF800FC000030FD00012F012F0800710870046D
:100E0800031D072F082F1D2F1530831203139F0072
:100E18009F140E2F9F18112F122F0E2F1F101E0810
:100E2800F200F3017208F0007308F100392F392F2E
:100E3800392F013070067104031D232F242F392FF9
:100E48001930831203139F009F142A2F9F182D2FE8
:100E58002E2F2A2F1F101E08F200F3017208F0002F
:100E68007308F100392F392F392F08000130831208
:100E78000313AE000030AF0002307C067D04031D72
:100E8800462F472F552F0130F0000030F100003079
:100E9800F2000030F3000A128A11D2260A128A11CF
:100EA800802F01307C067D04031D5B2F5C2F6A2F89
:100EB8000030F0000030F1000130F2000030F300A3
:100EC8000A128A11D2260A128A11802F7D087C0400
:100ED800031D6F2F702F802F0130F0000030F100BC
:100EE8000130F2000030F3000A128A11D2260A12E9
:100EF8008A11802F802F802F080083160313850105
:100F080086018701831203138501860187010A126E
:100F18008A11B4260A128A11912F0130F00000308C
:100F2800F1000A128A1102270A128A117108FB01BC
:100F3800FB077008FA01FA077B08803AFF00803047
:100F48007F02031DA92F6A307A020030031801308E
:100F5800F400F5017408F6007508F7000030F00099
:100F68000030F1000A128A1102270A128A11710848
:100F7800FB01FB077008FA01FA077B08803AFF00BB
:100F880080307F02031DCA2F6A307A0200300318AE
:100F98000130F400F5017408F8007508F9007708C5
:100FA8007604031DD82FD92FE52F79087804031D5F
:100FB800DE2FDF2FE52F0A128A113A270A128A112B
:100FC800912F83120313AE01AF017708F101F107E6
:100FD8007608F001F0077908F301F3077808F201C1
:100FE800F2070A128A11D2260A128A11912F912F1A
:080FF800912F0A128A11002852
:02400E00F5FFBC
:00000001FF
