:0A00000080310228880187311F2F8C
:100E2600303023008E0021009E01080064008001FE
:100E36000131890B1A2F0034FC01FD01203084009A
:100E4600003085001230873119278731200087311D
:100E5600902F013070067104031D322F332F362F69
:100E660020000E17432F20000E132F082E04031DFB
:100E76003D2F3E2F432F0130FC000030FD00432F55
:100E8600013072067304031D492F4A2F4C2F8E170B
:100E9600592F8E132F082E04031D522F532F592F0F
:100EA6000230FC000030FD00592F592F0800710850
:100EB6007004031D5F2F602F742F413021009D00A9
:100EC6009D14652F9D18682F692F652F1D101C080E
:100ED600F200F3017208F0007308F1008F2F8F2FD4
:100EE6008F2F013070067104031D7A2F7B2F8F2FF1
:100EF600453021009D009D14802F9D18832F842F3F
:100F0600802F1D101C08F200F3017208F000730810
:100F1600F1008F2F8F2F8F2F080021008C018D015C
:100F260030308E0020008C018D018E018731132711
:100F360087319D2F0130F0000030F10087315A27AC
:100F460087317108FB01FB077008FA01FA077B0875
:100F5600803AFF0080307F02031DB32F79307A027A
:100F6600003003180130F400F5017408F600750826
:100F7600F7000030F0000030F10087315A27873142
:100F86007108FB01FB077008FA01FA077B08803A33
:100F9600FF0080307F02031DD22F79307A020030A5
:100FA60003180130F400F5017408F8007508F9001B
:100FB60077087604031DE02FE12FE92F79087804DE
:100FC600031DE62FE72FE92F9D2F9D2F2000AE0151
:100FD600AF017708F101F1077608F001F00779080B
:100FE600F301F3077808F201F20787312C278731DE
:0A0FF6009D2F9D2F9D2F80310228B2
:020000040001F9
:02000E00E4FF0D
:00000001FF
