:0A0000008031022888018531762D39
:100AD400303023008E0021009E0108006400800154
:100AE4000131890B712D00342030840000308500E1
:100AF400143085317025853120008631572E013020
:100B040070067104031D872D882D8B2D20000E1770
:100B1400982D20000E132F082E04031D922D932DC3
:100B2400982D0130B0000030B100982D01307206CC
:100B34007304031D9E2D9F2DA12D8E17AE2D8E1394
:100B44002F082E04031DA72DA82DAE2D0230B000B2
:100B54000030B100AE2DAE2D0800F201F301730890
:100B6400803AFF0080307F02031DBA2D05307202E7
:100B7400031CBD2DBE2DC02DD32DD32D000001305F
:100B8400F2070030F33D7308803AFF0080307F02A3
:100B9400031DCE2D05307202031CD12DD22DC02D84
:100BA400D32D0130F0020030F13B71087004031DB5
:100BB400DC2DDD2DAF2DDE2D080071087004031D22
:100BC400E42DE52DF92D413021009D009D14EA2DE1
:100BD4009D18ED2DEE2DEA2D1D101C08F200F301D9
:100BE4007208F0007308F100142E142E142E013034
:100BF40070067104031DFF2D002E142E45302100B4
:100C04009D009D14052E9D18082E092E052E1D10DD
:100C14001C08F200F3017208F0007308F100142EAE
:100C2400142E142E080001302000AE000030AF0056
:100C3400023030063104031D202E212E2D2E0130CA
:100C4400F0000030F1000030F2000030F300853194
:100C540081258631562E0130200030063104031DD3
:100C6400342E352E412E0030F0000030F1000130DA
:100C7400F2000030F300853181258631562E2000A4
:100C840031083004031D472E482E562E0130F00043
:100C94000030F1000130F2000030F300853181258D
:100CA4008631562E562E562E080021008C018D01B9
:100CB40030308E0020008C018D018E018631D026CB
:100CC400863185316A258631672E0130F000003087
:100CD400F1008531DF25863171082000B901B9079B
:100CE4007008B801B8073908803AFF0080307F02E5
:100CF400031D7E2E51303802003003180130FC00F1
:100D0400FD017C082000B4007D08B5000030F0002F
:100D14000030F1008531DF25863171082000B901EA
:100D2400B9077008B801B8073908803AFF00803065
:100D34007F02031D9F2E513038020030031801300A
:100D4400FC00FD017C082000B6007D08B7003508D2
:100D54003404031DAE2EAF2EB92E37083604031DFE
:100D6400B42EB52EB92E863115268631672E200075
:100D7400AE01AF013508F101F1073408F001F007C5
:100D84003708F301F3073608F201F20785318125AC
:100D94008631672E672E672E8031022820000E11BF
:100DA400F430F0000130F1008531AF2586312000A8
:100DB4000E15F430F0000130F1008531AF25863195
:100DC40020000E11F430F0000130F1008531AF2520
:100DD400863120000E15F430F0000130F100853129
:100DE400AF25863120000E11F430F0000130F100FF
:100DF4008531AF25863120000E15F430F000013026
:100E0400F1008531AF25863120000E11E830F00065
:100E14000330F1008531AF258631F401F501750801
:100E2400803AFF0080307F02031D1A2F5030740275
:100E3400031C1D2F1E2F202F442F442F20008E15FE
:100E44000430F0000030F1008531AF2586312000F8
:100E54008E110430F0000030F1008531AF25863169
:100E64000130F4070030F53D7508803AFF0080300A
:100E74007F02031D3F2F50307402031C422F432F67
:100E8400202F442F6830F0000130F1008531AF2568
:100E94008631F601F7017708803AFF0080307F023F
:100EA400031D562F50307602031C592F5A2F5C2FE6
:100EB400802F802F20008E150430F0000030F100C8
:100EC4008531AF25863120008E110430F0000030CA
:100ED400F1008531AF2586310130F6070030F73D4A
:100EE4007708803AFF0080307F02031D7B2F50304B
:100EF4007602031C7E2F7F2F5C2F802F6830F0003A
:100F04000130F1008531AF258631F801F901790806
:100F1400803AFF0080307F02031D922F5030780208
:100F2400031C952F962F982FBC2FBC2F20008E15B5
:100F34000430F0000030F1008531AF258631200007
:100F44008E110430F0000030F1008531AF25863178
:100F54000130F8070030F93D7908803AFF0080300D
:100F64007F02031DB72F50307802031CBA2FBB2F0A
:100F7400982FBC2F6830F0000130F1008531AF2587
:100F84008631C830F0000030F1008531AF2586315C
:100F9400FA01FB017B08803AFF0081307F02031DC8
:100FA400D52F90307A02031CD82FD92FDB2FFF2F97
:100FB400FF2F20008E150130F0000030F100853144
:100FC400AF25863120008E110130F0000030F10091
:100FD4008531AF2586310130FA070030FB3D7B08AF
:100FE400803AFF0081307F02031DFA2F90307A028D
:0C0FF400031CFD2FFE2FDB2FFF2F080039
:020000040001F9
:02000E00E4F715
:00000001FF
