:100000000A128A11C82B00308A000408840A820769
:100010000034533474346134723474342134003411
:1007520064008001840A0406031900340406AA2BEB
:10076200F20083120313851572080A128A11F62306
:100772000A128A110800F20083120313851172080B
:10078200803E0A128A11F6230A128A110800831384
:100792003430840046300A128A11A9230A128A11BF
:1007A20083010A128A11792EF30000300A128A118B
:1007B200BC230A128A1173080A128A11B1230A127F
:1007C2008A11080083120313851101300A128A115B
:1007D200F6230A128A110330F3009730F200F20B6B
:1007E200F02BF30BF02BF52B0800F1000D30F0008D
:1007F200F00BF92B7108F00004300310F00CFF3EEF
:10080200031DFE2B70080F39831203138800851411
:10081200851071080F398800851485100800013091
:1008220070067104031D162C172C1B2C8312031344
:100832000714222C8312031307100130C200003068
:10084200C300013072067304031D282C292C2B2CA3
:100852008714312C87100230C2000030C300312CC3
:100862000800F300831203138515482C73088400D3
:100872000A128A1103200A128A110A128A11F62315
:100882000A128A110130F2007208F307482C730829
:1008920084000A128A1103200A128A110038031DE9
:1008A200532C542C372C552C08000430F2007208BB
:1008B200F300FB30F2007208F400602C602C01306F
:1008C200F402031D652C662C602C672C0130F302A8
:1008D200031D6C2C6D2C5A2C6E2C0130F002003052
:1008E200031CF103F10271087004031D792C7A2CA8
:1008F200562C7B2C080083120313AB01A71F822CFA
:10090200832C8C2CA609A709A60A0319A70AAB01F6
:100912000314AB0D8C2C2608F0002708F100F2011D
:100922008E30A9002908F3002B08AA002A08F40037
:100932000A128A11FE250A128A1170088312031301
:10094200A6007108A7007208A800A72C0800F600EC
:10095200831203139F017608F20001300310F20D97
:10096200FF3E031DAF2C0310720D9F001F149F1436
:10097200BA2C9F18BD2CBE2CBA2C1F108316031341
:100982001E08F200F3010830831203131E02003026
:10099200031C0130F400F50172087404F0007308BE
:1009A2007504F100D42C08000130831203134206AF
:1009B2004304031DDD2CDE2CEC2C0130F000003052
:1009C200F1000030F2000030F3000A128A11102404
:1009D2000A128A11042D02308312031342064304C1
:1009E200031DF42CF52C042D0030F0000030F10032
:1009F2000130F2000030F3000A128A1110240A12A8
:100A02008A11042D042D080071087004031D0A2D9B
:100A12000B2D0F2D831603130814332D013070068E
:100A22007104031D152D162D1A2D83160313881418
:100A3200332D023070067104031D202D212D252D2A
:100A4200831603130815332D033070067104031D3A
:100A52002B2D2C2D332D831603138815332D332D77
:100A6200332D332D8430831603139F000800063084
:100A7200831603139F000330F4007408F600850107
:100A82008801831203138511851005111430F500B6
:100A92007930F400F40B4B2DF50B4B2D502D7608CD
:100AA200831203138800851485100730F5007D300A
:100AB200F400F40B5A2DF50B5A2D831203138514EF
:100AC20085104230F400F40B642D6400831203138A
:100AD200851485104230F400F40B6D2D6400023051
:100AE2008312031388008514851028300A128A1194
:100AF200F6230A128A110F300A128A11F6230A12F9
:100B02008A110A128A11E3230A128A1106300A1282
:100B12008A11F6230A128A110800FA1F912D922DCA
:100B2200BA2D003083120313A0000030A1008030E0
:100B3200A2007809A3007909A4007A09A500A30AF2
:100B42000319A40A0319A50A2308A00724080318F5
:100B5200240FAC2DAD2DA10725080318250FB22DAA
:100B6200B32DA2072008F8002108F9002208FA0094
:100B7200BA2DFD1FBD2DBE2DE62D003083120313AD
:100B8200A0000030A1008030A2007B09A3007C09F4
:100B9200A4007D09A500A30A0319A40A0319A50A42
:100BA2002308A00724080318240FD82DD92DA10744
:100BB20025080318250FDE2DDF2DA2072008FB00D4
:100BC2002108FC002208FD00E62D8030FA06803064
:100BD200FD067D087A02031DF42D7C087902031DAF
:100BE200F42D7B0878020318F72DF82DFA2D031047
:100BF200FD2D0314FD2DFD2D08007308031D022E8B
:100C02000A2E720871047004031D082E092E202E6C
:100C12000A2E0030F0000030F1000030F200782E91
:100C2200782E202E0130F5007508F30701300310ED
:100C3200F20CF10CF00CFF3E031D182E202EFE309C
:100C42007205031D252E262E132E3E2E3E2E01301A
:100C5200F5007508F3070130F00700300318013082
:100C6200F107003003180130F20701300310F20CD3
:100C7200F10CF00CFF3E031D372EFF307205031DF1
:100C8200432E442E282E512E512E0130F3020130D4
:100C92000310F00DF10DF20DFF3E031D492E512EF2
:100CA200F11F542E552E462E7318582E592E5F2E94
:100CB200FF30F0057F30F105FF30F2050310F30C31
:100CC2007308F500F601F70110300310F50DF60D6B
:100CD200F70DFF3E031D662E7508F0047608F10439
:100CE2007708F2047408031D772E782EF217080095
:100CF20083160313850186018701880189010A127F
:100D02008A1138250A128A110A128A1136270A1202
:100D12008A110030F0000030F1000A128A11052514
:100D22000A128A110130F0000030F1000A128A1111
:100D320005250A128A119D2E00300A128A11A82452
:100D42000A128A11710883120313B301B3077008E0
:100D5200B201B207CD30F8000C30F9004030FA0091
:100D62003308A701A7073208A601A6070A128A11AB
:100D72007C240A128A11831203132608FB00270817
:100D8200FC002808FD000A128A118E250A128A1117
:100D92000030031C013083120313AC00AD012C0898
:100DA200AE002D08AF0001300A128A11A8240A12DF
:100DB2008A11710883120313B301B3077008B201D9
:100DC200B207CD30F8000C30F9004030FA00330899
:100DD200A701A7073208A601A6070A128A117C24D6
:100DE2000A128A11831203132608FB002708FC004B
:100DF2002808FD000A128A118E250A128A11003073
:100E0200031C013083120313AC00AD012C08B000A7
:100E12002D08B1002F082E04031D102F112F1D2F96
:100E220031083004031D162F172F1D2F0A128A11A5
:100E3200D5240A128A119D2E831203132F08F10161
:100E4200F1072E08F001F0073108F301F30730082B
:100E5200F201F2070A128A1110240A128A119D2E37
:100E62009D2E9D2E0A128A11002838300A128A11EC
:100E7200D5230A128A11E830F0000330F1000A1279
:100E82008A1156240A128A1137300A128A11D5237E
:100E92000A128A11E830F0000330F1000A128A11B6
:100EA20056240A128A1136300A128A11D5230A12DE
:100EB2008A11E830F0000330F1000A128A11562438
:100EC2000A128A1135300A128A11D5230A128A119E
:100ED200E830F0000330F1000A128A1156240A1297
:100EE2008A1134300A128A11D5230A128A11E83083
:100EF200F0000330F1000A128A1156240A128A11F4
:100F020033300A128A11D5230A128A11831203136B
:100F12008715C830F0000030F1000A128A115624F9
:100F22000A128A11831203138711BC30F0000230B7
:100F3200F1000A128A1156240A128A11831203132B
:100F420087156430F0000030F1000A128A1156242D
:100F52000A128A1132300A128A11D5230A128A1110
:100F62006430F0000030F1000A128A1156240A128D
:100F72008A11831203138711BC30F0000230F10092
:100F82000A128A1156240A128A1183120313871530
:100F9200C830F0000030F1000A128A1156240A12F9
:100FA2008A1131300A128A11D5230A128A11831248
:100FB20003138711BC30F0000230F1000A128A11CB
:100FC20056240A128A118312031307162C30F000DA
:100FD2000130F1000A128A1156240A128A11831270
:100FE2000313071200300A128A11BC230A128A1153
:0E0FF20001300A128A1132240A128A110800F4
:02400E00F5FFBC
:00000001FF
